{
  "contractName": "MappingToken",
  "abi": [
    {
      "constant": true,
      "inputs": [],
      "name": "name",
      "outputs": [
        {
          "name": "",
          "type": "string"
        }
      ],
      "payable": false,
      "stateMutability": "view",
      "type": "function"
    },
    {
      "constant": false,
      "inputs": [
        {
          "name": "_spender",
          "type": "address"
        },
        {
          "name": "_value",
          "type": "uint256"
        }
      ],
      "name": "approve",
      "outputs": [
        {
          "name": "success",
          "type": "bool"
        }
      ],
      "payable": false,
      "stateMutability": "nonpayable",
      "type": "function"
    },
    {
      "constant": true,
      "inputs": [],
      "name": "totalSupply",
      "outputs": [
        {
          "name": "",
          "type": "uint256"
        }
      ],
      "payable": false,
      "stateMutability": "view",
      "type": "function"
    },
    {
      "constant": false,
      "inputs": [
        {
          "name": "_from",
          "type": "address"
        },
        {
          "name": "_to",
          "type": "address"
        },
        {
          "name": "_value",
          "type": "uint256"
        }
      ],
      "name": "transferFrom",
      "outputs": [
        {
          "name": "success",
          "type": "bool"
        }
      ],
      "payable": false,
      "stateMutability": "nonpayable",
      "type": "function"
    },
    {
      "constant": true,
      "inputs": [],
      "name": "decimals",
      "outputs": [
        {
          "name": "",
          "type": "uint8"
        }
      ],
      "payable": false,
      "stateMutability": "view",
      "type": "function"
    },
    {
      "constant": false,
      "inputs": [
        {
          "name": "_newOwner",
          "type": "address"
        }
      ],
      "name": "transferOwner",
      "outputs": [],
      "payable": false,
      "stateMutability": "nonpayable",
      "type": "function"
    },
    {
      "constant": true,
      "inputs": [
        {
          "name": "_owner",
          "type": "address"
        }
      ],
      "name": "balanceOf",
      "outputs": [
        {
          "name": "balance",
          "type": "uint256"
        }
      ],
      "payable": false,
      "stateMutability": "view",
      "type": "function"
    },
    {
      "constant": false,
      "inputs": [],
      "name": "renounceOwnership",
      "outputs": [],
      "payable": false,
      "stateMutability": "nonpayable",
      "type": "function"
    },
    {
      "constant": false,
      "inputs": [],
      "name": "acceptOwnership",
      "outputs": [],
      "payable": false,
      "stateMutability": "nonpayable",
      "type": "function"
    },
    {
      "constant": true,
      "inputs": [],
      "name": "owner",
      "outputs": [
        {
          "name": "",
          "type": "address"
        }
      ],
      "payable": false,
      "stateMutability": "view",
      "type": "function"
    },
    {
      "constant": true,
      "inputs": [],
      "name": "symbol",
      "outputs": [
        {
          "name": "",
          "type": "string"
        }
      ],
      "payable": false,
      "stateMutability": "view",
      "type": "function"
    },
    {
      "constant": false,
      "inputs": [
        {
          "name": "_newOwner",
          "type": "address"
        }
      ],
      "name": "changeOwner",
      "outputs": [],
      "payable": false,
      "stateMutability": "nonpayable",
      "type": "function"
    },
    {
      "constant": false,
      "inputs": [
        {
          "name": "_to",
          "type": "address"
        },
        {
          "name": "_value",
          "type": "uint256"
        }
      ],
      "name": "transfer",
      "outputs": [
        {
          "name": "success",
          "type": "bool"
        }
      ],
      "payable": false,
      "stateMutability": "nonpayable",
      "type": "function"
    },
    {
      "constant": true,
      "inputs": [],
      "name": "newOwner",
      "outputs": [
        {
          "name": "",
          "type": "address"
        }
      ],
      "payable": false,
      "stateMutability": "view",
      "type": "function"
    },
    {
      "constant": true,
      "inputs": [
        {
          "name": "_owner",
          "type": "address"
        },
        {
          "name": "_spender",
          "type": "address"
        }
      ],
      "name": "allowance",
      "outputs": [
        {
          "name": "remaining",
          "type": "uint256"
        }
      ],
      "payable": false,
      "stateMutability": "view",
      "type": "function"
    },
    {
      "inputs": [
        {
          "name": "tokenName",
          "type": "string"
        },
        {
          "name": "tokenSymbol",
          "type": "string"
        },
        {
          "name": "tokenDecimal",
          "type": "uint8"
        }
      ],
      "payable": false,
      "stateMutability": "nonpayable",
      "type": "constructor"
    },
    {
      "anonymous": false,
      "inputs": [
        {
          "indexed": true,
          "name": "previousOwner",
          "type": "address"
        },
        {
          "indexed": true,
          "name": "newOwner",
          "type": "address"
        }
      ],
      "name": "OwnershipTransferred",
      "type": "event"
    },
    {
      "anonymous": false,
      "inputs": [
        {
          "indexed": true,
          "name": "_from",
          "type": "address"
        },
        {
          "indexed": true,
          "name": "_to",
          "type": "address"
        },
        {
          "indexed": false,
          "name": "_value",
          "type": "uint256"
        }
      ],
      "name": "Transfer",
      "type": "event"
    },
    {
      "anonymous": false,
      "inputs": [
        {
          "indexed": true,
          "name": "_owner",
          "type": "address"
        },
        {
          "indexed": true,
          "name": "_spender",
          "type": "address"
        },
        {
          "indexed": false,
          "name": "_value",
          "type": "uint256"
        }
      ],
      "name": "Approval",
      "type": "event"
    },
    {
      "constant": false,
      "inputs": [
        {
          "name": "account",
          "type": "address"
        },
        {
          "name": "value",
          "type": "uint256"
        }
      ],
      "name": "mint",
      "outputs": [],
      "payable": false,
      "stateMutability": "nonpayable",
      "type": "function"
    },
    {
      "constant": false,
      "inputs": [
        {
          "name": "account",
          "type": "address"
        },
        {
          "name": "value",
          "type": "uint256"
        }
      ],
      "name": "burn",
      "outputs": [],
      "payable": false,
      "stateMutability": "nonpayable",
      "type": "function"
    },
    {
      "constant": false,
      "inputs": [
        {
          "name": "_name",
          "type": "string"
        },
        {
          "name": "_symbol",
          "type": "string"
        }
      ],
      "name": "update",
      "outputs": [],
      "payable": false,
      "stateMutability": "nonpayable",
      "type": "function"
    }
  ],
  "bytecode": "0x60806040523480156200001157600080fd5b506040516200111a3803806200111a83398101604090815281516020808401519284015160068054600160a060020a0319163317905591840180519094939093019262000065916000919086019062000099565b5081516200007b90600190602085019062000099565b506002805460ff191660ff92909216919091179055506200013e9050565b828054600181600116156101000203166002900490600052602060002090601f016020900481019282601f10620000dc57805160ff19168380011785556200010c565b828001600101855582156200010c579182015b828111156200010c578251825591602001919060010190620000ef565b506200011a9291506200011e565b5090565b6200013b91905b808211156200011a576000815560010162000125565b90565b610fcc806200014e6000396000f3006080604052600436106100fb5763ffffffff7c010000000000000000000000000000000000000000000000000000000060003504166306fdde038114610100578063095ea7b31461018a57806318160ddd146101c257806323b872dd146101e9578063313ce5671461021357806340c10f191461023e5780634fb2e45d1461026457806370a0823114610285578063715018a6146102a657806379ba5097146102bb5780638da5cb5b146102d057806395d89b41146103015780639dc29fac14610316578063a6f9dae11461033a578063a9059cbb1461035b578063d4ee1d901461037f578063dd62ed3e14610394578063f4c84d19146103bb575b600080fd5b34801561010c57600080fd5b506101156103e7565b6040805160208082528351818301528351919283929083019185019080838360005b8381101561014f578181015183820152602001610137565b50505050905090810190601f16801561017c5780820380516001836020036101000a031916815260200191505b509250505060405180910390f35b34801561019657600080fd5b506101ae600160a060020a0360043516602435610475565b604080519115158252519081900360200190f35b3480156101ce57600080fd5b506101d76105be565b60408051918252519081900360200190f35b3480156101f557600080fd5b506101ae600160a060020a03600435811690602435166044356105c4565b34801561021f57600080fd5b50610228610716565b6040805160ff9092168252519081900360200190f35b34801561024a57600080fd5b50610262600160a060020a036004351660243561071f565b005b34801561027057600080fd5b50610262600160a060020a0360043516610854565b34801561029157600080fd5b506101d7600160a060020a036004351661096d565b3480156102b257600080fd5b50610262610988565b3480156102c757600080fd5b506102626109f7565b3480156102dc57600080fd5b506102e5610a3c565b60408051600160a060020a039092168252519081900360200190f35b34801561030d57600080fd5b50610115610a4b565b34801561032257600080fd5b50610262600160a060020a0360043516602435610aa5565b34801561034657600080fd5b50610262600160a060020a0360043516610bda565b34801561036757600080fd5b506101ae600160a060020a0360043516602435610c59565b34801561038b57600080fd5b506102e5610d55565b3480156103a057600080fd5b506101d7600160a060020a0360043581169060243516610d64565b3480156103c757600080fd5b506102626024600480358281019290820135918135918201910135610d8f565b6000805460408051602060026001851615610100026000190190941693909304601f8101849004840282018401909252818152929183018282801561046d5780601f106104425761010080835404028352916020019161046d565b820191906000526020600020905b81548152906001019060200180831161045057829003601f168201915b505050505081565b6000604060443610156104d2576040805160e560020a62461bcd02815260206004820152601960248201527f5061796c6f61642073697a6520697320696e636f727265637400000000000000604482015290519081900360640190fd5b8215806105005750336000908152600460209081526040808320600160a060020a0388168452909152902054155b1515610556576040805160e560020a62461bcd02815260206004820152600d60248201527f4e6f74207065726d697474656400000000000000000000000000000000000000604482015290519081900360640190fd5b336000818152600460209081526040808320600160a060020a03891680855290835292819020879055805187815290519293927f8c5be1e5ebec7d5bd14f71427d1e84f3dd0314c0f7b2291e5b200ac8c7c3b925929181900390910190a35060019392505050565b60055481565b600060606064361015610621576040805160e560020a62461bcd02815260206004820152601960248201527f5061796c6f61642073697a6520697320696e636f727265637400000000000000604482015290519081900360640190fd5b600160a060020a03841660009081526003602052604090205461064a908463ffffffff610dff16565b600160a060020a03808616600090815260036020526040808220939093559087168152205461067f908463ffffffff610e6316565b600160a060020a03861660009081526003602090815260408083209390935560048152828220338352905220546106bc908463ffffffff610e6316565b600160a060020a0380871660008181526004602090815260408083203384528252918290209490945580518781529051928816939192600080516020610f81833981519152929181900390910190a3506001949350505050565b60025460ff1681565b600654600160a060020a0316331461076f576040805160e560020a62461bcd0281526020600482015260096024820152600080516020610f61833981519152604482015290519081900360640190fd5b80600081116107c8576040805160e560020a62461bcd02815260206004820152600d60248201527f56616c7565206973206e756c6c00000000000000000000000000000000000000604482015290519081900360640190fd5b600160a060020a0383166000908152600360205260409020546107f1908363ffffffff610dff16565b600160a060020a03841660009081526003602052604090205560055461081d908363ffffffff610dff16565b600555604080518381529051600160a060020a03851691600091600080516020610f818339815191529181900360200190a3505050565b600654600160a060020a031633146108a4576040805160e560020a62461bcd0281526020600482015260096024820152600080516020610f61833981519152604482015290519081900360640190fd5b600160a060020a0381161515610904576040805160e560020a62461bcd02815260206004820152601d60248201527f4e6577206f776e657220697320746865207a65726f2061646472657373000000604482015290519081900360640190fd5b600654604051600160a060020a038084169216907f8be0079c531659141344cd1fd0a4f28419497f9722a3daafe3b4186f6b6457e090600090a36006805473ffffffffffffffffffffffffffffffffffffffff1916600160a060020a0392909216919091179055565b600160a060020a031660009081526003602052604090205490565b600654600160a060020a031633146109d8576040805160e560020a62461bcd0281526020600482015260096024820152600080516020610f61833981519152604482015290519081900360640190fd5b6006805473ffffffffffffffffffffffffffffffffffffffff19169055565b600754600160a060020a0316331415610a3a576007546006805473ffffffffffffffffffffffffffffffffffffffff1916600160a060020a039092169190911790555b565b600654600160a060020a031681565b60018054604080516020600284861615610100026000190190941693909304601f8101849004840282018401909252818152929183018282801561046d5780601f106104425761010080835404028352916020019161046d565b600654600160a060020a03163314610af5576040805160e560020a62461bcd0281526020600482015260096024820152600080516020610f61833981519152604482015290519081900360640190fd5b8060008111610b4e576040805160e560020a62461bcd02815260206004820152600d60248201527f56616c7565206973206e756c6c00000000000000000000000000000000000000604482015290519081900360640190fd5b600160a060020a038316600090815260036020526040902054610b77908363ffffffff610e6316565b600160a060020a038416600090815260036020526040902055600554610ba3908363ffffffff610e6316565b600555604080518381529051600091600160a060020a03861691600080516020610f818339815191529181900360200190a3505050565b600654600160a060020a03163314610c2a576040805160e560020a62461bcd0281526020600482015260096024820152600080516020610f61833981519152604482015290519081900360640190fd5b6007805473ffffffffffffffffffffffffffffffffffffffff1916600160a060020a0392909216919091179055565b600060406044361015610cb6576040805160e560020a62461bcd02815260206004820152601960248201527f5061796c6f61642073697a6520697320696e636f727265637400000000000000604482015290519081900360640190fd5b33600090815260036020526040902054610cd6908463ffffffff610e6316565b3360009081526003602052604080822092909255600160a060020a03861681522054610d08908463ffffffff610dff16565b600160a060020a038516600081815260036020908152604091829020939093558051868152905191923392600080516020610f818339815191529281900390910190a35060019392505050565b600754600160a060020a031681565b600160a060020a03918216600090815260046020908152604080832093909416825291909152205490565b600654600160a060020a03163314610ddf576040805160e560020a62461bcd0281526020600482015260096024820152600080516020610f61833981519152604482015290519081900360640190fd5b610deb60008585610ec5565b50610df860018383610ec5565b5050505050565b600082820183811015610e5c576040805160e560020a62461bcd02815260206004820152601560248201527f536166654d61746820616464206f766572666c6f770000000000000000000000604482015290519081900360640190fd5b9392505050565b60008083831115610ebe576040805160e560020a62461bcd02815260206004820152601260248201527f536166654d617468207375622062203e20610000000000000000000000000000604482015290519081900360640190fd5b5050900390565b828054600181600116156101000203166002900490600052602060002090601f016020900481019282601f10610f065782800160ff19823516178555610f33565b82800160010185558215610f33579182015b82811115610f33578235825591602001919060010190610f18565b50610f3f929150610f43565b5090565b610f5d91905b80821115610f3f5760008155600101610f49565b9056004e6f74206f776e65720000000000000000000000000000000000000000000000ddf252ad1be2c89b69c2b068fc378daa952ba7f163c4a11628f55a4df523b3efa165627a7a723058204d070755944e144a9b025d300b420bbd2be12ed6b98b64415466cd38e0ef36f60029",
  "source": "/*\n\n  Copyright 2019 Wanchain Foundation.\n\n  Licensed under the Apache License, Version 2.0 (the \"License\");\n  you may not use this file except in compliance with the License.\n  You may obtain a copy of the License at\n\n  http://www.apache.org/licenses/LICENSE-2.0\n\n  Unless required by applicable law or agreed to in writing, software\n  distributed under the License is distributed on an \"AS IS\" BASIS,\n  WITHOUT WARRANTIES OR CONDITIONS OF ANY KIND, either express or implied.\n  See the License for the specific language governing permissions and\n  limitations under the License.\n\n*/\n\n//                            _           _           _\n//  __      ____ _ _ __   ___| |__   __ _(_)_ __   __| | _____   __\n//  \\ \\ /\\ / / _` | '_ \\ / __| '_ \\ / _` | | '_ \\@/ _` |/ _ \\ \\ / /\n//   \\ V  V / (_| | | | | (__| | | | (_| | | | | | (_| |  __/\\ V /\n//    \\_/\\_/ \\__,_|_| |_|\\___|_| |_|\\__,_|_|_| |_|\\__,_|\\___| \\_/\n//\n//\n\npragma solidity 0.4.26;\n\nimport '../components/StandardToken.sol';\nimport '../components/Owned.sol';\n\ncontract MappingToken is StandardToken, Owned {\n    using SafeMath for uint;\n    /****************************************************************************\n     **\n     ** MODIFIERS\n     **\n     ****************************************************************************/\n    modifier onlyMeaningfulValue(uint value) {\n        require(value > 0, \"Value is null\");\n        _;\n    }\n\n    /****************************************************************************\n     **\n     ** EVENTS\n     **\n     ****************************************************************************/\n\n    ///@notice Initialize the TokenManager address\n    ///@dev Initialize the TokenManager address\n    ///@param tokenName The token name to be used\n    ///@param tokenSymbol The token symbol to be used\n    ///@param tokenDecimal The token decimals to be used\n    constructor(string tokenName, string tokenSymbol, uint8 tokenDecimal)\n        public\n    {\n        name = tokenName;\n        symbol = tokenSymbol;\n        decimals = tokenDecimal;\n    }\n\n    /****************************************************************************\n     **\n     ** MANIPULATIONS\n     **\n     ****************************************************************************/\n\n    /// @notice Create token\n    /// @dev Create token\n    /// @param account Address will receive token\n    /// @param value Amount of token to be minted\n    function mint(address account, uint value)\n        external\n        onlyOwner\n        onlyMeaningfulValue(value)\n    {\n        balances[account] = balances[account].add(value);\n        totalSupply = totalSupply.add(value);\n\n        emit Transfer(address(0), account, value);\n    }\n\n    /// @notice Burn token\n    /// @dev Burn token\n    /// @param account Address of whose token will be burnt\n    /// @param value Amount of token to be burnt\n    function burn(address account, uint value)\n        external\n        onlyOwner\n        onlyMeaningfulValue(value)\n    {\n        balances[account] = balances[account].sub(value);\n        totalSupply = totalSupply.sub(value);\n\n        emit Transfer(account, address(0), value);\n    }\n\n    /// @notice update token name, symbol\n    /// @dev update token name, symbol\n    /// @param _name token new name\n    /// @param _symbol token new symbol\n    function update(string _name, string _symbol)\n        external\n        onlyOwner\n    {\n        name = _name;\n        symbol = _symbol;\n    }\n}",
  "sourcePath": "/home/jsw/code/wanchain/two-way-bridge-contracts/contracts/tokenManager/MappingToken.sol",
  "compiler": {
    "name": "solc",
    "version": "0.4.26+commit.4563c3fc.Emscripten.clang"
  },
  "schemaVersion": "3.2.4",
  "updatedAt": "2020-10-14T03:20:45.314Z",
  "devdoc": {
    "methods": {
      "burn(address,uint256)": {
        "details": "Burn token",
        "params": {
          "account": "Address of whose token will be burnt",
          "value": "Amount of token to be burnt"
        }
      },
      "changeOwner(address)": {
        "params": {
          "_newOwner": "The address of the new owner. 0x0 can be used to create  an unowned neutral vault, however that cannot be undone"
        }
      },
      "mint(address,uint256)": {
        "details": "Create token",
        "params": {
          "account": "Address will receive token",
          "value": "Amount of token to be minted"
        }
      },
      "update(string,string)": {
        "details": "update token name, symbol",
        "params": {
          "_name": "token new name",
          "_symbol": "token new symbol"
        }
      }
    }
  },
  "userdoc": {
    "methods": {
      "burn(address,uint256)": {
        "notice": "Burn token"
      },
      "changeOwner(address)": {
        "notice": "`owner` can step down and assign some other address to this role"
      },
      "mint(address,uint256)": {
        "notice": "Create token"
      },
      "update(string,string)": {
        "notice": "update token name, symbol"
      }
    }
  }
}